{
  "_format": "hh-sol-artifact-1",
  "contractName": "WavePortal",
  "sourceName": "contracts/WavePortal.sol",
  "abi": [
    {
      "inputs": [],
      "stateMutability": "payable",
      "type": "constructor"
    },
    {
      "anonymous": false,
      "inputs": [
        {
          "indexed": true,
          "internalType": "address",
          "name": "from",
          "type": "address"
        },
        {
          "indexed": false,
          "internalType": "uint256",
          "name": "timestamp",
          "type": "uint256"
        },
        {
          "indexed": false,
          "internalType": "string",
          "name": "message",
          "type": "string"
        }
      ],
      "name": "NewWave",
      "type": "event"
    },
    {
      "inputs": [],
      "name": "getAllWaves",
      "outputs": [
        {
          "components": [
            {
              "internalType": "address",
              "name": "waver",
              "type": "address"
            },
            {
              "internalType": "string",
              "name": "message",
              "type": "string"
            },
            {
              "internalType": "uint256",
              "name": "timestamp",
              "type": "uint256"
            }
          ],
          "internalType": "struct WavePortal.Wave[]",
          "name": "",
          "type": "tuple[]"
        }
      ],
      "stateMutability": "view",
      "type": "function"
    },
    {
      "inputs": [
        {
          "internalType": "address",
          "name": "person",
          "type": "address"
        }
      ],
      "name": "getOwedFromAddress",
      "outputs": [
        {
          "internalType": "uint256",
          "name": "",
          "type": "uint256"
        }
      ],
      "stateMutability": "view",
      "type": "function"
    },
    {
      "inputs": [],
      "name": "getTotalWaves",
      "outputs": [
        {
          "internalType": "uint256",
          "name": "",
          "type": "uint256"
        }
      ],
      "stateMutability": "view",
      "type": "function"
    },
    {
      "inputs": [
        {
          "internalType": "string",
          "name": "_message",
          "type": "string"
        }
      ],
      "name": "wave",
      "outputs": [],
      "stateMutability": "nonpayable",
      "type": "function"
    },
    {
      "inputs": [
        {
          "internalType": "address payable",
          "name": "reciever",
          "type": "address"
        }
      ],
      "name": "withdrawFunds",
      "outputs": [],
      "stateMutability": "nonpayable",
      "type": "function"
    }
  ],
  "bytecode": "0x608060405233600260006101000a81548173ffffffffffffffffffffffffffffffffffffffff021916908373ffffffffffffffffffffffffffffffffffffffff160217905550610f93806100546000396000f3fe608060405234801561001057600080fd5b50600436106100565760003560e01c80628e75c71461005b578063449d46c01461008b57806368742da6146100a75780639a2cdc08146100c3578063bd43a908146100e1575b600080fd5b610075600480360381019061007091906108e8565b6100ff565b6040516100829190610bc9565b60405180910390f35b6100a560048036038101906100a0919061093a565b610148565b005b6100c160048036038101906100bc9190610911565b610425565b005b6100cb610597565b6040516100d89190610bc9565b60405180910390f35b6100e96105a0565b6040516100f69190610b87565b60405180910390f35b6000600460008373ffffffffffffffffffffffffffffffffffffffff1673ffffffffffffffffffffffffffffffffffffffff168152602001908152602001600020549050919050565b4261012c600360003373ffffffffffffffffffffffffffffffffffffffff1673ffffffffffffffffffffffffffffffffffffffff168152602001908152602001600020546101969190610cdb565b106101d6576040517f08c379a00000000000000000000000000000000000000000000000000000000081526004016101cd90610ba9565b60405180910390fd5b42600360003373ffffffffffffffffffffffffffffffffffffffff1673ffffffffffffffffffffffffffffffffffffffff16815260200190815260200160002081905550600160008082825461022c9190610cdb565b92505081905550600660405180606001604052803373ffffffffffffffffffffffffffffffffffffffff16815260200183815260200142815250908060018154018082558091505060019003906000526020600020906003020160009091909190915060008201518160000160006101000a81548173ffffffffffffffffffffffffffffffffffffffff021916908373ffffffffffffffffffffffffffffffffffffffff16021790555060208201518160010190805190602001906102f29291906107b3565b506040820151816002015550503373ffffffffffffffffffffffffffffffffffffffff167f5f7e16dc676677766a70e9c5628aa6c54ddb8b6e5188e2ae1e1f17f1ffbea7164283604051610347929190610be4565b60405180910390a2606442444360405160200161036693929190610b4a565b6040516020818303038152906040528051906020012060001c6103899190610e31565b60018190555061039a6001546106f1565b60326001541115610422576000662386f26fc10000905080600460003373ffffffffffffffffffffffffffffffffffffffff1673ffffffffffffffffffffffffffffffffffffffff16815260200190815260200160002060008282546104009190610cdb565b9250508190555080600560008282546104199190610cdb565b92505081905550505b50565b6000600460003373ffffffffffffffffffffffffffffffffffffffff1673ffffffffffffffffffffffffffffffffffffffff168152602001908152602001600020541161047157600080fd5b600460003373ffffffffffffffffffffffffffffffffffffffff1673ffffffffffffffffffffffffffffffffffffffff16815260200190815260200160002054600560008282546104c29190610d31565b925050819055508073ffffffffffffffffffffffffffffffffffffffff166108fc600460003373ffffffffffffffffffffffffffffffffffffffff1673ffffffffffffffffffffffffffffffffffffffff168152602001908152602001600020549081150290604051600060405180830381858888f1935050505015801561054e573d6000803e3d6000fd5b506000600460003373ffffffffffffffffffffffffffffffffffffffff1673ffffffffffffffffffffffffffffffffffffffff1681526020019081526020016000208190555050565b60008054905090565b60606006805480602002602001604051908101604052809291908181526020016000905b828210156106e857838290600052602060002090600302016040518060600160405290816000820160009054906101000a900473ffffffffffffffffffffffffffffffffffffffff1673ffffffffffffffffffffffffffffffffffffffff1673ffffffffffffffffffffffffffffffffffffffff16815260200160018201805461064d90610df5565b80601f016020809104026020016040519081016040528092919081815260200182805461067990610df5565b80156106c65780601f1061069b576101008083540402835291602001916106c6565b820191906000526020600020905b8154815290600101906020018083116106a957829003601f168201915b50505050508152602001600282015481525050815260200190600101906105c4565b50505050905090565b610787816040516024016107059190610bc9565b6040516020818303038152906040527ff5b1bba9000000000000000000000000000000000000000000000000000000007bffffffffffffffffffffffffffffffffffffffffffffffffffffffff19166020820180517bffffffffffffffffffffffffffffffffffffffffffffffffffffffff838183161783525050505061078a565b50565b60008151905060006a636f6e736f6c652e6c6f679050602083016000808483855afa5050505050565b8280546107bf90610df5565b90600052602060002090601f0160209004810192826107e15760008555610828565b82601f106107fa57805160ff1916838001178555610828565b82800160010185558215610828579182015b8281111561082757825182559160200191906001019061080c565b5b5090506108359190610839565b5090565b5b8082111561085257600081600090555060010161083a565b5090565b600061086961086484610c45565b610c14565b90508281526020810184848401111561088157600080fd5b61088c848285610db3565b509392505050565b6000813590506108a381610f2f565b92915050565b6000813590506108b881610f46565b92915050565b600082601f8301126108cf57600080fd5b81356108df848260208601610856565b91505092915050565b6000602082840312156108fa57600080fd5b600061090884828501610894565b91505092915050565b60006020828403121561092357600080fd5b6000610931848285016108a9565b91505092915050565b60006020828403121561094c57600080fd5b600082013567ffffffffffffffff81111561096657600080fd5b610972848285016108be565b91505092915050565b60006109878383610ac5565b905092915050565b61099881610d65565b82525050565b60006109a982610c85565b6109b38185610ca8565b9350836020820285016109c585610c75565b8060005b85811015610a0157848403895281516109e2858261097b565b94506109ed83610c9b565b925060208a019950506001810190506109c9565b50829750879550505050505092915050565b6000610a1e82610c90565b610a288185610cb9565b9350610a38818560208601610dc2565b610a4181610f1e565b840191505092915050565b6000610a5782610c90565b610a618185610cca565b9350610a71818560208601610dc2565b610a7a81610f1e565b840191505092915050565b6000610a92601683610cca565b91507f5761697420616e6f746865722035206d696e75746573000000000000000000006000830152602082019050919050565b6000606083016000830151610add600086018261098f565b5060208301518482036020860152610af58282610a13565b9150506040830151610b0a6040860182610b15565b508091505092915050565b610b1e81610da9565b82525050565b610b2d81610da9565b82525050565b610b44610b3f82610da9565b610e27565b82525050565b6000610b568286610b33565b602082019150610b668285610b33565b602082019150610b768284610b33565b602082019150819050949350505050565b60006020820190508181036000830152610ba1818461099e565b905092915050565b60006020820190508181036000830152610bc281610a85565b9050919050565b6000602082019050610bde6000830184610b24565b92915050565b6000604082019050610bf96000830185610b24565b8181036020830152610c0b8184610a4c565b90509392505050565b6000604051905081810181811067ffffffffffffffff82111715610c3b57610c3a610eef565b5b8060405250919050565b600067ffffffffffffffff821115610c6057610c5f610eef565b5b601f19601f8301169050602081019050919050565b6000819050602082019050919050565b600081519050919050565b600081519050919050565b6000602082019050919050565b600082825260208201905092915050565b600082825260208201905092915050565b600082825260208201905092915050565b6000610ce682610da9565b9150610cf183610da9565b9250827fffffffffffffffffffffffffffffffffffffffffffffffffffffffffffffffff03821115610d2657610d25610e62565b5b828201905092915050565b6000610d3c82610da9565b9150610d4783610da9565b925082821015610d5a57610d59610e62565b5b828203905092915050565b6000610d7082610d89565b9050919050565b6000610d8282610d89565b9050919050565b600073ffffffffffffffffffffffffffffffffffffffff82169050919050565b6000819050919050565b82818337600083830152505050565b60005b83811015610de0578082015181840152602081019050610dc5565b83811115610def576000848401525b50505050565b60006002820490506001821680610e0d57607f821691505b60208210811415610e2157610e20610ec0565b5b50919050565b6000819050919050565b6000610e3c82610da9565b9150610e4783610da9565b925082610e5757610e56610e91565b5b828206905092915050565b7f4e487b7100000000000000000000000000000000000000000000000000000000600052601160045260246000fd5b7f4e487b7100000000000000000000000000000000000000000000000000000000600052601260045260246000fd5b7f4e487b7100000000000000000000000000000000000000000000000000000000600052602260045260246000fd5b7f4e487b7100000000000000000000000000000000000000000000000000000000600052604160045260246000fd5b6000601f19601f8301169050919050565b610f3881610d65565b8114610f4357600080fd5b50565b610f4f81610d77565b8114610f5a57600080fd5b5056fea2646970667358221220ab34fb5cf9ec52d5d6b0297ffc12954daae0905c78a1a56c5b30b8d90a757a9a64736f6c63430008000033",
  "linkReferences": {},
  "deployedLinkReferences": {}
}