{
    "_format": "hh-sol-artifact-1",
    "contractName": "AddressBook",
    "sourceName": "contracts/AddressBook.sol",
    "abi": [
        {
            "inputs": [
                {
                    "internalType": "address",
                    "name": "theirAddress",
                    "type": "address"
                },
                {
                    "internalType": "string",
                    "name": "alia",
                    "type": "string"
                }
            ],
            "name": "addAddress",
            "outputs": [],
            "stateMutability": "nonpayable",
            "type": "function"
        },
        {
            "inputs": [
                {
                    "internalType": "address",
                    "name": "yourAddress",
                    "type": "address"
                }
            ],
            "name": "getAddressArray",
            "outputs": [
                {
                    "internalType": "address[]",
                    "name": "",
                    "type": "address[]"
                }
            ],
            "stateMutability": "view",
            "type": "function"
        },
        {
            "inputs": [
                {
                    "internalType": "address",
                    "name": "theirAddress",
                    "type": "address"
                }
            ],
            "name": "getAlias",
            "outputs": [
                {
                    "internalType": "string",
                    "name": "",
                    "type": "string"
                }
            ],
            "stateMutability": "view",
            "type": "function"
        },
        {
            "inputs": [
                {
                    "internalType": "address[]",
                    "name": "ary",
                    "type": "address[]"
                },
                {
                    "internalType": "address",
                    "name": "search",
                    "type": "address"
                }
            ],
            "name": "indexOf",
            "outputs": [
                {
                    "internalType": "uint256",
                    "name": "",
                    "type": "uint256"
                }
            ],
            "stateMutability": "pure",
            "type": "function"
        },
        {
            "inputs": [
                {
                    "internalType": "address",
                    "name": "theirAddress",
                    "type": "address"
                }
            ],
            "name": "removeAddress",
            "outputs": [],
            "stateMutability": "nonpayable",
            "type": "function"
        }
    ],
    "bytecode": "0x608060405234801561001057600080fd5b50610e59806100206000396000f3fe608060405234801561001057600080fd5b50600436106100575760003560e01c80634ba79dfe1461005c57806399900d11146100785780639fce5c8e146100a8578063d033c456146100d8578063da97754e146100f4575b600080fd5b61007660048036038101906100719190610904565b610124565b005b610092600480360381019061008d9190610904565b61031d565b60405161009f9190610ae7565b60405180910390f35b6100c260048036038101906100bd9190610981565b61042b565b6040516100cf9190610b29565b60405180910390f35b6100f260048036038101906100ed919061092d565b61050e565b005b61010e60048036038101906101099190610904565b610642565b60405161011b9190610ac5565b60405180910390f35b6000803373ffffffffffffffffffffffffffffffffffffffff1673ffffffffffffffffffffffffffffffffffffffff16815260200190815260200160002061022e6000803373ffffffffffffffffffffffffffffffffffffffff1673ffffffffffffffffffffffffffffffffffffffff16815260200190815260200160002080548060200260200160405190810160405280929190818152602001828054801561022357602002820191906000526020600020905b8160009054906101000a900473ffffffffffffffffffffffffffffffffffffffff1673ffffffffffffffffffffffffffffffffffffffff16815260200190600101908083116101d9575b50505050508361042b565b81548110610265577f4e487b7100000000000000000000000000000000000000000000000000000000600052603260045260246000fd5b9060005260206000200160006101000a81549073ffffffffffffffffffffffffffffffffffffffff0219169055600160003373ffffffffffffffffffffffffffffffffffffffff1673ffffffffffffffffffffffffffffffffffffffff16815260200190815260200160002060008273ffffffffffffffffffffffffffffffffffffffff1673ffffffffffffffffffffffffffffffffffffffff168152602001908152602001600020600061031a919061070e565b50565b6060600160003373ffffffffffffffffffffffffffffffffffffffff1673ffffffffffffffffffffffffffffffffffffffff16815260200190815260200160002060008373ffffffffffffffffffffffffffffffffffffffff1673ffffffffffffffffffffffffffffffffffffffff16815260200190815260200160002080546103a690610c99565b80601f01602080910402602001604051908101604052809291908181526020018280546103d290610c99565b801561041f5780601f106103f45761010080835404028352916020019161041f565b820191906000526020600020905b81548152906001019060200180831161040257829003601f168201915b50505050509050919050565b600080600090505b83518110156104cc578273ffffffffffffffffffffffffffffffffffffffff1684828151811061048c577f4e487b7100000000000000000000000000000000000000000000000000000000600052603260045260246000fd5b602002602001015173ffffffffffffffffffffffffffffffffffffffff1614156104b95780915050610508565b80806104c490610cfc565b915050610433565b506040517f08c379a00000000000000000000000000000000000000000000000000000000081526004016104ff90610b09565b60405180910390fd5b92915050565b6000803373ffffffffffffffffffffffffffffffffffffffff1673ffffffffffffffffffffffffffffffffffffffff168152602001908152602001600020829080600181540180825580915050600190039060005260206000200160009091909190916101000a81548173ffffffffffffffffffffffffffffffffffffffff021916908373ffffffffffffffffffffffffffffffffffffffff16021790555080600160003373ffffffffffffffffffffffffffffffffffffffff1673ffffffffffffffffffffffffffffffffffffffff16815260200190815260200160002060008473ffffffffffffffffffffffffffffffffffffffff1673ffffffffffffffffffffffffffffffffffffffff168152602001908152602001600020908051906020019061063d92919061074e565b505050565b60606000808373ffffffffffffffffffffffffffffffffffffffff1673ffffffffffffffffffffffffffffffffffffffff16815260200190815260200160002080548060200260200160405190810160405280929190818152602001828054801561070257602002820191906000526020600020905b8160009054906101000a900473ffffffffffffffffffffffffffffffffffffffff1673ffffffffffffffffffffffffffffffffffffffff16815260200190600101908083116106b8575b50505050509050919050565b50805461071a90610c99565b6000825580601f1061072c575061074b565b601f01602090049060005260206000209081019061074a91906107d4565b5b50565b82805461075a90610c99565b90600052602060002090601f01602090048101928261077c57600085556107c3565b82601f1061079557805160ff19168380011785556107c3565b828001600101855582156107c3579182015b828111156107c25782518255916020019190600101906107a7565b5b5090506107d091906107d4565b5090565b5b808211156107ed5760008160009055506001016107d5565b5090565b60006108046107ff84610b69565b610b44565b9050808382526020820190508285602086028201111561082357600080fd5b60005b858110156108535781610839888261089b565b845260208401935060208301925050600181019050610826565b5050509392505050565b600061087061086b84610b95565b610b44565b90508281526020810184848401111561088857600080fd5b610893848285610c57565b509392505050565b6000813590506108aa81610e0c565b92915050565b600082601f8301126108c157600080fd5b81356108d18482602086016107f1565b91505092915050565b600082601f8301126108eb57600080fd5b81356108fb84826020860161085d565b91505092915050565b60006020828403121561091657600080fd5b60006109248482850161089b565b91505092915050565b6000806040838503121561094057600080fd5b600061094e8582860161089b565b925050602083013567ffffffffffffffff81111561096b57600080fd5b610977858286016108da565b9150509250929050565b6000806040838503121561099457600080fd5b600083013567ffffffffffffffff8111156109ae57600080fd5b6109ba858286016108b0565b92505060206109cb8582860161089b565b9150509250929050565b60006109e183836109ed565b60208301905092915050565b6109f681610c1b565b82525050565b6000610a0782610bd6565b610a118185610bf9565b9350610a1c83610bc6565b8060005b83811015610a4d578151610a3488826109d5565b9750610a3f83610bec565b925050600181019050610a20565b5085935050505092915050565b6000610a6582610be1565b610a6f8185610c0a565b9350610a7f818560208601610c66565b610a8881610dd2565b840191505092915050565b6000610aa0601183610c0a565b9150610aab82610de3565b602082019050919050565b610abf81610c4d565b82525050565b60006020820190508181036000830152610adf81846109fc565b905092915050565b60006020820190508181036000830152610b018184610a5a565b905092915050565b60006020820190508181036000830152610b2281610a93565b9050919050565b6000602082019050610b3e6000830184610ab6565b92915050565b6000610b4e610b5f565b9050610b5a8282610ccb565b919050565b6000604051905090565b600067ffffffffffffffff821115610b8457610b83610da3565b5b602082029050602081019050919050565b600067ffffffffffffffff821115610bb057610baf610da3565b5b610bb982610dd2565b9050602081019050919050565b6000819050602082019050919050565b600081519050919050565b600081519050919050565b6000602082019050919050565b600082825260208201905092915050565b600082825260208201905092915050565b6000610c2682610c2d565b9050919050565b600073ffffffffffffffffffffffffffffffffffffffff82169050919050565b6000819050919050565b82818337600083830152505050565b60005b83811015610c84578082015181840152602081019050610c69565b83811115610c93576000848401525b50505050565b60006002820490506001821680610cb157607f821691505b60208210811415610cc557610cc4610d74565b5b50919050565b610cd482610dd2565b810181811067ffffffffffffffff82111715610cf357610cf2610da3565b5b80604052505050565b6000610d0782610c4d565b91507fffffffffffffffffffffffffffffffffffffffffffffffffffffffffffffffff821415610d3a57610d39610d45565b5b600182019050919050565b7f4e487b7100000000000000000000000000000000000000000000000000000000600052601160045260246000fd5b7f4e487b7100000000000000000000000000000000000000000000000000000000600052602260045260246000fd5b7f4e487b7100000000000000000000000000000000000000000000000000000000600052604160045260246000fd5b6000601f19601f8301169050919050565b7f41646472657373206e6f7420666f756e64000000000000000000000000000000600082015250565b610e1581610c1b565b8114610e2057600080fd5b5056fea264697066735822122071e83e897c84ac1c72a2efe08be849d7022c5a84c997215bd169e595b08df52964736f6c63430008040033",
    "linkReferences": {},
    "deployedLinkReferences": {}
}