{
  "_format": "hh-sol-artifact-1",
  "contractName": "AddressBook",
  "sourceName": "contracts/AddressBook.sol",
  "abi": [
    {
      "anonymous": false,
      "inputs": [
        {
          "indexed": false,
          "internalType": "address",
          "name": "addy",
          "type": "address"
        },
        {
          "indexed": false,
          "internalType": "string",
          "name": "alia",
          "type": "string"
        }
      ],
      "name": "AddressAdded",
      "type": "event"
    },
    {
      "anonymous": false,
      "inputs": [
        {
          "indexed": false,
          "internalType": "address",
          "name": "addy",
          "type": "address"
        }
      ],
      "name": "AddressRemoved",
      "type": "event"
    },
    {
      "inputs": [
        {
          "internalType": "address",
          "name": "theirAddress",
          "type": "address"
        },
        {
          "internalType": "string",
          "name": "alia",
          "type": "string"
        }
      ],
      "name": "addAddress",
      "outputs": [],
      "stateMutability": "nonpayable",
      "type": "function"
    },
    {
      "inputs": [
        {
          "internalType": "address",
          "name": "yourAddress",
          "type": "address"
        }
      ],
      "name": "getAddressArray",
      "outputs": [
        {
          "internalType": "address[]",
          "name": "",
          "type": "address[]"
        }
      ],
      "stateMutability": "view",
      "type": "function"
    },
    {
      "inputs": [
        {
          "internalType": "address",
          "name": "theirAddress",
          "type": "address"
        }
      ],
      "name": "getAlias",
      "outputs": [
        {
          "internalType": "string",
          "name": "",
          "type": "string"
        }
      ],
      "stateMutability": "view",
      "type": "function"
    },
    {
      "inputs": [
        {
          "internalType": "address[]",
          "name": "ary",
          "type": "address[]"
        },
        {
          "internalType": "address",
          "name": "search",
          "type": "address"
        }
      ],
      "name": "indexOf",
      "outputs": [
        {
          "internalType": "uint256",
          "name": "",
          "type": "uint256"
        }
      ],
      "stateMutability": "pure",
      "type": "function"
    },
    {
      "inputs": [
        {
          "internalType": "address",
          "name": "theirAddress",
          "type": "address"
        }
      ],
      "name": "removeAddress",
      "outputs": [],
      "stateMutability": "nonpayable",
      "type": "function"
    }
  ],
  "bytecode": "0x608060405234801561001057600080fd5b50610f23806100206000396000f3fe608060405234801561001057600080fd5b50600436106100575760003560e01c80634ba79dfe1461005c57806399900d11146100785780639fce5c8e146100a8578063d033c456146100d8578063da97754e146100f4575b600080fd5b61007660048036038101906100719190610974565b610124565b005b610092600480360381019061008d9190610974565b610354565b60405161009f9190610bb1565b60405180910390f35b6100c260048036038101906100bd91906109f1565b610462565b6040516100cf9190610bf3565b60405180910390f35b6100f260048036038101906100ed919061099d565b610545565b005b61010e60048036038101906101099190610974565b6106b2565b60405161011b9190610b8f565b60405180910390f35b6000803373ffffffffffffffffffffffffffffffffffffffff1673ffffffffffffffffffffffffffffffffffffffff16815260200190815260200160002061022e6000803373ffffffffffffffffffffffffffffffffffffffff1673ffffffffffffffffffffffffffffffffffffffff16815260200190815260200160002080548060200260200160405190810160405280929190818152602001828054801561022357602002820191906000526020600020905b8160009054906101000a900473ffffffffffffffffffffffffffffffffffffffff1673ffffffffffffffffffffffffffffffffffffffff16815260200190600101908083116101d9575b505050505083610462565b81548110610265577f4e487b7100000000000000000000000000000000000000000000000000000000600052603260045260246000fd5b9060005260206000200160006101000a81549073ffffffffffffffffffffffffffffffffffffffff0219169055600160003373ffffffffffffffffffffffffffffffffffffffff1673ffffffffffffffffffffffffffffffffffffffff16815260200190815260200160002060008273ffffffffffffffffffffffffffffffffffffffff1673ffffffffffffffffffffffffffffffffffffffff168152602001908152602001600020600061031a919061077e565b7f24a12366c02e13fe4a9e03d86a8952e85bb74a456c16e4a18b6d8295700b74bb816040516103499190610b44565b60405180910390a150565b6060600160003373ffffffffffffffffffffffffffffffffffffffff1673ffffffffffffffffffffffffffffffffffffffff16815260200190815260200160002060008373ffffffffffffffffffffffffffffffffffffffff1673ffffffffffffffffffffffffffffffffffffffff16815260200190815260200160002080546103dd90610d63565b80601f016020809104026020016040519081016040528092919081815260200182805461040990610d63565b80156104565780601f1061042b57610100808354040283529160200191610456565b820191906000526020600020905b81548152906001019060200180831161043957829003601f168201915b50505050509050919050565b600080600090505b8351811015610503578273ffffffffffffffffffffffffffffffffffffffff168482815181106104c3577f4e487b7100000000000000000000000000000000000000000000000000000000600052603260045260246000fd5b602002602001015173ffffffffffffffffffffffffffffffffffffffff1614156104f0578091505061053f565b80806104fb90610dc6565b91505061046a565b506040517f08c379a000000000000000000000000000000000000000000000000000000000815260040161053690610bd3565b60405180910390fd5b92915050565b6000803373ffffffffffffffffffffffffffffffffffffffff1673ffffffffffffffffffffffffffffffffffffffff168152602001908152602001600020829080600181540180825580915050600190039060005260206000200160009091909190916101000a81548173ffffffffffffffffffffffffffffffffffffffff021916908373ffffffffffffffffffffffffffffffffffffffff16021790555080600160003373ffffffffffffffffffffffffffffffffffffffff1673ffffffffffffffffffffffffffffffffffffffff16815260200190815260200160002060008473ffffffffffffffffffffffffffffffffffffffff1673ffffffffffffffffffffffffffffffffffffffff16815260200190815260200160002090805190602001906106749291906107be565b507f71c4586d57ada124e4bd494b6c0f9cb102be2af60eabee1b5c12e930f6a5eeb682826040516106a6929190610b5f565b60405180910390a15050565b60606000808373ffffffffffffffffffffffffffffffffffffffff1673ffffffffffffffffffffffffffffffffffffffff16815260200190815260200160002080548060200260200160405190810160405280929190818152602001828054801561077257602002820191906000526020600020905b8160009054906101000a900473ffffffffffffffffffffffffffffffffffffffff1673ffffffffffffffffffffffffffffffffffffffff1681526020019060010190808311610728575b50505050509050919050565b50805461078a90610d63565b6000825580601f1061079c57506107bb565b601f0160209004906000526020600020908101906107ba9190610844565b5b50565b8280546107ca90610d63565b90600052602060002090601f0160209004810192826107ec5760008555610833565b82601f1061080557805160ff1916838001178555610833565b82800160010185558215610833579182015b82811115610832578251825591602001919060010190610817565b5b5090506108409190610844565b5090565b5b8082111561085d576000816000905550600101610845565b5090565b600061087461086f84610c33565b610c0e565b9050808382526020820190508285602086028201111561089357600080fd5b60005b858110156108c357816108a9888261090b565b845260208401935060208301925050600181019050610896565b5050509392505050565b60006108e06108db84610c5f565b610c0e565b9050828152602081018484840111156108f857600080fd5b610903848285610d21565b509392505050565b60008135905061091a81610ed6565b92915050565b600082601f83011261093157600080fd5b8135610941848260208601610861565b91505092915050565b600082601f83011261095b57600080fd5b813561096b8482602086016108cd565b91505092915050565b60006020828403121561098657600080fd5b60006109948482850161090b565b91505092915050565b600080604083850312156109b057600080fd5b60006109be8582860161090b565b925050602083013567ffffffffffffffff8111156109db57600080fd5b6109e78582860161094a565b9150509250929050565b60008060408385031215610a0457600080fd5b600083013567ffffffffffffffff811115610a1e57600080fd5b610a2a85828601610920565b9250506020610a3b8582860161090b565b9150509250929050565b6000610a518383610a5d565b60208301905092915050565b610a6681610ce5565b82525050565b610a7581610ce5565b82525050565b6000610a8682610ca0565b610a908185610cc3565b9350610a9b83610c90565b8060005b83811015610acc578151610ab38882610a45565b9750610abe83610cb6565b925050600181019050610a9f565b5085935050505092915050565b6000610ae482610cab565b610aee8185610cd4565b9350610afe818560208601610d30565b610b0781610e9c565b840191505092915050565b6000610b1f601183610cd4565b9150610b2a82610ead565b602082019050919050565b610b3e81610d17565b82525050565b6000602082019050610b596000830184610a6c565b92915050565b6000604082019050610b746000830185610a6c565b8181036020830152610b868184610ad9565b90509392505050565b60006020820190508181036000830152610ba98184610a7b565b905092915050565b60006020820190508181036000830152610bcb8184610ad9565b905092915050565b60006020820190508181036000830152610bec81610b12565b9050919050565b6000602082019050610c086000830184610b35565b92915050565b6000610c18610c29565b9050610c248282610d95565b919050565b6000604051905090565b600067ffffffffffffffff821115610c4e57610c4d610e6d565b5b602082029050602081019050919050565b600067ffffffffffffffff821115610c7a57610c79610e6d565b5b610c8382610e9c565b9050602081019050919050565b6000819050602082019050919050565b600081519050919050565b600081519050919050565b6000602082019050919050565b600082825260208201905092915050565b600082825260208201905092915050565b6000610cf082610cf7565b9050919050565b600073ffffffffffffffffffffffffffffffffffffffff82169050919050565b6000819050919050565b82818337600083830152505050565b60005b83811015610d4e578082015181840152602081019050610d33565b83811115610d5d576000848401525b50505050565b60006002820490506001821680610d7b57607f821691505b60208210811415610d8f57610d8e610e3e565b5b50919050565b610d9e82610e9c565b810181811067ffffffffffffffff82111715610dbd57610dbc610e6d565b5b80604052505050565b6000610dd182610d17565b91507fffffffffffffffffffffffffffffffffffffffffffffffffffffffffffffffff821415610e0457610e03610e0f565b5b600182019050919050565b7f4e487b7100000000000000000000000000000000000000000000000000000000600052601160045260246000fd5b7f4e487b7100000000000000000000000000000000000000000000000000000000600052602260045260246000fd5b7f4e487b7100000000000000000000000000000000000000000000000000000000600052604160045260246000fd5b6000601f19601f8301169050919050565b7f41646472657373206e6f7420666f756e64000000000000000000000000000000600082015250565b610edf81610ce5565b8114610eea57600080fd5b5056fea264697066735822122077c87dd9f34747fa8f9c67d4ceb8c2b8a3ce27c4393bc059d60fcb61fddd19ae64736f6c63430008040033",
  "linkReferences": {},
  "deployedLinkReferences": {}
}